:020000040800F2
:100000001804002045010008CD0300085F02000825
:10001000CB030008B90100086906000800000000D1
:100020000000000000000000000000009104000833
:10003000BB01000800000000CF0300083D050008D8
:100040005F0100085F0100085F0100085F01000810
:100050005F0100085F0100085F0100085F01000800
:100060005F0100085F0100085F0100085F010008F0
:100070005F0100085F0100085F0100085F010008E0
:100080005F0100085F0100085F0100085F010008D0
:100090005F0100085F0100085F0100085F010008C0
:1000A0005F0100085F0100085F0100085F010008B0
:1000B0005F0100085F0100085F0100085F010008A0
:1000C0005F0100085F0100085F0100085F01000890
:1000D0005F0100085F0100085F0100085F01000880
:1000E0005F0100085F0100085F0100085F01000870
:1000F0005F0100085F0100085F0100085F01000860
:100100005F0100085F0100085F0100085F0100084F
:100110005F0100085F0100085F0100085F0100083F
:100120005F0100085F0100085F0100085F0100082F
:10013000DFF80CD000F02EF80048004761090008F5
:10014000180400200648804706480047FEE7FEE7FF
:10015000FEE7FEE7FEE7FEE7FEE7FEE7FEE7FEE777
:10016000410500083101000830B50B46014600206A
:100170002022012409E021FA02F59D4205D303FA69
:1001800002F5491B04FA02F52844151EA2F10102EA
:10019000F1DC30BD064C074D06E0E06840F001039D
:1001A00094E8070098471034AC42F6D3FFF7C4FF39
:1001B000A80A0008C80A0008FEE77047F0B5CA7828
:1001C000002502F00F03D20601D58A7813430A787E
:1001D0004FF00F0E12F0FF0F4FF001021CD0046819
:1001E0000F8802FA05F63740B74211D14FEA850C65
:1001F0000EFA0CF724EA070703FA0CF43C43CF7815
:10020000282F02D0482F02D002E0466100E00661AC
:100210006D1C082DE4D304600C88FF2C1ED94468A3
:100220005FF0000606F1080702FA07F50F882F4075
:10023000AF420FD14FEA860C0EFA0CF7BC4303FA1B
:100240000CF73C43CF78282F00D14561CF78482F59
:1002500000D10561761C082EE4D34460F0BDFEE7B2
:100260000029018802D041F4806101E021F480611D
:100270000180704702460020938A128B43EA0243B2
:1002800023F07F42914300D101207047002901886B
:1002900002D041F0010101E021F00101018070472D
:1002A0000029018802D041F4807101E021F48071BD
:1002B000018070470029018802D041F4007101E0FB
:1002C00021F40071018070470CB5024600200092B5
:1002D0000A0F21F07F41019202D0009A143202E00D
:1002E000009A090C1832009212680A4200D00120CC
:1002F0000CBD000070B50446808886B00D4620F025
:100300003F06684600F07CF827490298B0FBF1F1FF
:1003100089B20E43A680228822F001022280234B5C
:100320002A689A421CD85200B0FBF2F080B204282E
:1003300000D20420491C2184A083208840F00100C1
:10034000208021884FF6F5300140A8886A89104343
:1003500008432080A88929890843208106B070BD00
:10036000EB88A3F53F46FF3E0BD002EBC20303EB45
:100370000212B0FBF2F080B240F48040020506D0D9
:1003800007E002EB4202B0FBF2F080B2F6E740F089
:1003900001004FF4967251434FF47A72B1FBF2F1BF
:1003A00040F40040C6E7000040420F00A086010074
:1003B000008AC0B2704712B141F0010101E001F0C2
:1003C000FE010182704701827047FEE77047704767
:1003D000044A0029D16901D0014300E08143D16181
:1003E0007047000000100240044A0029916901D0C2
:1003F000014300E08143916170470000001002401A
:1004000030B51F494A6812F00C031E4A03D0042B72
:1004100001D0082B21D002604A680F231A4C03EA4E
:100420001212A35C0268DA4042604B68072505EAB5
:100430001323E35C22FA03F383604B6805EAD323BA
:10044000E35CDA40C2604968032303EA9131231F69
:10045000595CB2FBF1F1016130BD4A684B6802F4AE
:1004600070124FF0020413F4803F04EB924202D06A
:100470004B689B0301D5054B00E0024B5A43CAE78A
:100480000010024000127A000400002000093D0024
:10049000704700000CB500212648019100910268C8
:1004A00042F4803202604FF4A063026802F400322A
:1004B0000092019A521C0192009A12B9019A9A4232
:1004C000F3D10268920333D5012100911A490A68D9
:1004D00042F010020A600A6822F003020A600A6809
:1004E00042F002020A60416841604168416041682F
:1004F00041F480614160416821F47C1141604168B0
:1005000041F4E8114160016841F0807101600168C7
:100510008901FCD5416821F003014160416841F047
:10052000020141604168C1F381010229FAD10CBD89
:1005300000910CBD001002400020024070470000F6
:100540000F4810B5016841F00101016041680D4A92
:100550001140416001680C4A11400160016821F4BA
:1005600080210160416821F4FE0141604FF41F01C8
:100570008160FFF78FFF05494FF00060086010BDF4
:10058000001002400000FFF8FFFFF6FE08ED00E05B
:100590000029818902D041F4005101E021F4005189
:1005A000818170470246002012880A4200D0012053
:1005B0007047000030B50446008A85B00D464CF601
:1005C000FF710840E98801432182A1894EF6F310AA
:1005D0000140A8882A8910436A890A431043A081F0
:1005E000A08A4FF6FF410840A9890143A1826846CD
:1005F000FFF706FF1948844201D1039800E00298F2
:10060000A189090400EBC00101EB0010296801D5A4
:10061000490000E08900B0FBF1F06422B0FBF2F188
:1006200009010B096FF018056B4300EB8300A389E8
:100630001D044FF0320306D503EBC000B0FBF2F00F
:1006400000F0070005E003EB0010B0FBF2F000F053
:100650000F000843208105B030BD00000038014084
:10066000C1F3080181807047FEE700000FB4054B1D
:1006700010B503A9044A029800F018F810BC5DF800
:1006800014FB0000010800081400002002E008C864
:10069000121F08C1002AFAD170477047002001E0FC
:1006A00001C1121F002AFBD1704700002DE9FF4F46
:1006B00089B09B460446002506E025280BD05A4603
:1006C0000B999047641C6D1C20780028F5D10DB063
:1006D0002846BDE8F08F0027B8460122474900E0D0
:1006E000074314F8013F203B02FA03F00842F7D118
:1006F00020782E2819D114F8010F47F004072A2872
:100700000ED06FF02F022078A0F1300109290CD80B
:1007100008EB880102EB410100EB0108641CF2E7E1
:100720000A98641C50F8048B0A9020780028CED0D8
:10073000642808D0692806D075281ED05A460B991F
:1007400090476D1C58E00A994FF00A0901C90A91B7
:10075000002802DA40422D2102E0390504D52B2180
:100760008DF82010012103E0F90704D02021F7E7DC
:100770008A4608AE0DE00021FAE70A994FF00A090F
:1007800001C90A91F7E74946FFF7EEFC303106F858
:10079000011D0028F7D1ADEB060000F12009780714
:1007A00001D44FF00108C84502DDA8EB090000E0C4
:1007B00000208046002706E008A85A46C05D0B9935
:1007C00090476D1C7F1C5745F6DB04E030205A46ED
:1007D0000B9990476D1CB8F10001A8F10108F5DCF8
:1007E00005E016F8010B5A460B9990476D1CB9F1BC
:1007F0000001A9F10109F4DC641C65E70928010086
:1008000070B5074D044640212846FFF7CBFE00286F
:10081000F9D0E1B22846FFF723FF204670BD000063
:100820000038014010B586B001210820FFF7DCFD3B
:1008300001214805FFF7CCFDC020ADF810000320D2
:100840008DF812001C208DF8130004A90F48FFF743
:10085000B5FC0020ADF804004FF48060ADF80A004C
:100860000001ADF80C004CF25030094C0090694684
:100870002046FFF73FFD01212046FFF707FD01213C
:100880002046FFF7EDFC06B010BD0000000C014053
:10089000005400402DE9F0412E4C884606464FF4A6
:1008A000003529462046FFF70FFD0028F9D1012128
:1008B0002046FFF7F5FC284D20462946FFF7DAFCD5
:1008C0000028F9D0002231462046FFF774FD234F5F
:1008D00020463946FFF7CEFC0028F9D001212046FA
:1008E000FFF7D4FC41462046FFF76DFD1B4FBF1CB0
:1008F00039462046FFF7BEFC0028F9D001212046EA
:10090000FFF7CEFC29462046FFF7B4FC0028F9D0BB
:10091000012231462046FFF74EFD0F4D6D1C294642
:100920002046FFF7A7FC0028F9D000212046FFF75A
:1009300097FC01212046FFF7BDFC074D3F352946B6
:100940002046FFF797FC0028F9D02046BDE8F0418B
:10095000FFF72EBD00540040010003008200070095
:1009600000F064F8FFF75EFF3B2000F04DF8014611
:1009700013A0FFF77BFE3D2000F046F8014613A0D0
:10098000FFF774FE3F2000F03FF8014612A0FFF78A
:100990006DFE432000F038F8014612A0FFF766FE16
:1009A000452000F031F8014611A0FFF75FFE472017
:1009B00000F02AF8014611A0FFF758FED4E7000026
:1009C0000A6178203D202564200A00000A61792010
:1009D0003D202564200A00000A617A203D2025641C
:1009E000200A00000A7778203D202564200A0000B4
:1009F0000A7779203D202564200A00000A777A20B2
:100A00003D202564200A000070B50446401CC0B299
:100A100000F007F80546204600F003F845EA0020FC
:100A200070BD0146D020FFF735BF000010B586B07D
:100A3000012144F20400FFF7D7FC4FF40070ADF839
:100A4000100018208DF813000320154C8DF81200AB
:100A500004A92046FFF7B2FB2015ADF810000420D2
:100A60008DF8130004A92046FFF7A8FB4FF4E130EE
:100A700000900020ADF80400ADF80600ADF80800C5
:100A8000ADF80C000C20074CADF80A006946204672
:100A9000FFF790FD01212046FFF77AFD06B010BD5B
:100AA0000008014000380140C80A0008000000208A
:100AB000180000008C060008E00A0008180000205A
:100AC000000400009C060008020406080000000064
:100AD00001020304010203040607080900000000E4
:0400000508000131BD
:00000001FF
